{
  "_format": "hh-sol-artifact-1",
  "contractName": "PepeMarketplace",
  "sourceName": "contracts/PepeMarketplace.sol",
  "abi": [
    {
      "inputs": [
        {
          "internalType": "uint256",
          "name": "_marketFee",
          "type": "uint256"
        },
        {
          "internalType": "address",
          "name": "initialOwner",
          "type": "address"
        }
      ],
      "stateMutability": "nonpayable",
      "type": "constructor"
    },
    {
      "inputs": [
        {
          "internalType": "address",
          "name": "owner",
          "type": "address"
        }
      ],
      "name": "OwnableInvalidOwner",
      "type": "error"
    },
    {
      "inputs": [
        {
          "internalType": "address",
          "name": "account",
          "type": "address"
        }
      ],
      "name": "OwnableUnauthorizedAccount",
      "type": "error"
    },
    {
      "inputs": [],
      "name": "ReentrancyGuardReentrantCall",
      "type": "error"
    },
    {
      "anonymous": false,
      "inputs": [
        {
          "indexed": true,
          "internalType": "address",
          "name": "seller",
          "type": "address"
        },
        {
          "indexed": true,
          "internalType": "address",
          "name": "nftContract",
          "type": "address"
        },
        {
          "indexed": false,
          "internalType": "uint256",
          "name": "tokenId",
          "type": "uint256"
        }
      ],
      "name": "ItemCanceled",
      "type": "event"
    },
    {
      "anonymous": false,
      "inputs": [
        {
          "indexed": true,
          "internalType": "address",
          "name": "seller",
          "type": "address"
        },
        {
          "indexed": true,
          "internalType": "address",
          "name": "nftContract",
          "type": "address"
        },
        {
          "indexed": false,
          "internalType": "uint256",
          "name": "tokenId",
          "type": "uint256"
        },
        {
          "indexed": false,
          "internalType": "uint256",
          "name": "price",
          "type": "uint256"
        }
      ],
      "name": "ItemListed",
      "type": "event"
    },
    {
      "anonymous": false,
      "inputs": [
        {
          "indexed": true,
          "internalType": "address",
          "name": "seller",
          "type": "address"
        },
        {
          "indexed": true,
          "internalType": "address",
          "name": "buyer",
          "type": "address"
        },
        {
          "indexed": true,
          "internalType": "address",
          "name": "nftContract",
          "type": "address"
        },
        {
          "indexed": false,
          "internalType": "uint256",
          "name": "tokenId",
          "type": "uint256"
        },
        {
          "indexed": false,
          "internalType": "uint256",
          "name": "price",
          "type": "uint256"
        }
      ],
      "name": "ItemSold",
      "type": "event"
    },
    {
      "anonymous": false,
      "inputs": [
        {
          "indexed": false,
          "internalType": "uint256",
          "name": "newFee",
          "type": "uint256"
        }
      ],
      "name": "MarketFeeUpdated",
      "type": "event"
    },
    {
      "anonymous": false,
      "inputs": [
        {
          "indexed": true,
          "internalType": "address",
          "name": "previousOwner",
          "type": "address"
        },
        {
          "indexed": true,
          "internalType": "address",
          "name": "newOwner",
          "type": "address"
        }
      ],
      "name": "OwnershipTransferred",
      "type": "event"
    },
    {
      "inputs": [
        {
          "internalType": "address",
          "name": "nftContract",
          "type": "address"
        },
        {
          "internalType": "uint256",
          "name": "tokenId",
          "type": "uint256"
        }
      ],
      "name": "buyItem",
      "outputs": [],
      "stateMutability": "payable",
      "type": "function"
    },
    {
      "inputs": [
        {
          "internalType": "address",
          "name": "nftContract",
          "type": "address"
        },
        {
          "internalType": "uint256",
          "name": "tokenId",
          "type": "uint256"
        }
      ],
      "name": "cancelListing",
      "outputs": [],
      "stateMutability": "nonpayable",
      "type": "function"
    },
    {
      "inputs": [
        {
          "internalType": "address",
          "name": "nftContract",
          "type": "address"
        },
        {
          "internalType": "uint256",
          "name": "tokenId",
          "type": "uint256"
        }
      ],
      "name": "getListing",
      "outputs": [
        {
          "components": [
            {
              "internalType": "address",
              "name": "seller",
              "type": "address"
            },
            {
              "internalType": "address",
              "name": "nftContract",
              "type": "address"
            },
            {
              "internalType": "uint256",
              "name": "tokenId",
              "type": "uint256"
            },
            {
              "internalType": "uint256",
              "name": "price",
              "type": "uint256"
            },
            {
              "internalType": "bool",
              "name": "active",
              "type": "bool"
            }
          ],
          "internalType": "struct PepeMarketplace.Listing",
          "name": "",
          "type": "tuple"
        }
      ],
      "stateMutability": "view",
      "type": "function"
    },
    {
      "inputs": [
        {
          "internalType": "address",
          "name": "nftContract",
          "type": "address"
        },
        {
          "internalType": "uint256",
          "name": "tokenId",
          "type": "uint256"
        }
      ],
      "name": "isListed",
      "outputs": [
        {
          "internalType": "bool",
          "name": "",
          "type": "bool"
        }
      ],
      "stateMutability": "view",
      "type": "function"
    },
    {
      "inputs": [
        {
          "internalType": "address",
          "name": "nftContract",
          "type": "address"
        },
        {
          "internalType": "uint256",
          "name": "tokenId",
          "type": "uint256"
        },
        {
          "internalType": "uint256",
          "name": "price",
          "type": "uint256"
        }
      ],
      "name": "listItem",
      "outputs": [],
      "stateMutability": "nonpayable",
      "type": "function"
    },
    {
      "inputs": [
        {
          "internalType": "address",
          "name": "",
          "type": "address"
        },
        {
          "internalType": "uint256",
          "name": "",
          "type": "uint256"
        }
      ],
      "name": "listings",
      "outputs": [
        {
          "internalType": "address",
          "name": "seller",
          "type": "address"
        },
        {
          "internalType": "address",
          "name": "nftContract",
          "type": "address"
        },
        {
          "internalType": "uint256",
          "name": "tokenId",
          "type": "uint256"
        },
        {
          "internalType": "uint256",
          "name": "price",
          "type": "uint256"
        },
        {
          "internalType": "bool",
          "name": "active",
          "type": "bool"
        }
      ],
      "stateMutability": "view",
      "type": "function"
    },
    {
      "inputs": [],
      "name": "marketFee",
      "outputs": [
        {
          "internalType": "uint256",
          "name": "",
          "type": "uint256"
        }
      ],
      "stateMutability": "view",
      "type": "function"
    },
    {
      "inputs": [],
      "name": "owner",
      "outputs": [
        {
          "internalType": "address",
          "name": "",
          "type": "address"
        }
      ],
      "stateMutability": "view",
      "type": "function"
    },
    {
      "inputs": [],
      "name": "renounceOwnership",
      "outputs": [],
      "stateMutability": "nonpayable",
      "type": "function"
    },
    {
      "inputs": [
        {
          "internalType": "uint256",
          "name": "_marketFee",
          "type": "uint256"
        }
      ],
      "name": "setMarketFee",
      "outputs": [],
      "stateMutability": "nonpayable",
      "type": "function"
    },
    {
      "inputs": [
        {
          "internalType": "address",
          "name": "newOwner",
          "type": "address"
        }
      ],
      "name": "transferOwnership",
      "outputs": [],
      "stateMutability": "nonpayable",
      "type": "function"
    }
  ],
  "bytecode": "0x608060405234801561001057600080fd5b5060405161118a38038061118a83398101604081905261002f916100c5565b806001600160a01b03811661005e57604051631e4fbdf760e01b81526000600482015260240160405180910390fd5b61006781610075565b505060018055600255610102565b600080546001600160a01b038381166001600160a01b0319831681178455604051919092169283917f8be0079c531659141344cd1fd0a4f28419497f9722a3daafe3b4186f6b6457e09190a35050565b600080604083850312156100d857600080fd5b825160208401519092506001600160a01b03811681146100f757600080fd5b809150509250929050565b611079806101116000396000f3fe60806040526004361061009b5760003560e01c806389bfd38f1161006457806389bfd38f146102045780638da5cb5b146102245780639f37092a1461024c578063b2ddee061461025f578063cdb3cd251461027f578063f2fde38b146102d857600080fd5b806207df30146100a05780630ccf21561461013c57806326b825d214610160578063715018a61461018257806388700d1c14610197575b600080fd5b3480156100ac57600080fd5b506101026100bb366004610ed8565b60036020818152600093845260408085209091529183529120805460018201546002830154938301546004909301546001600160a01b039283169492909116929060ff1685565b604080516001600160a01b0396871681529590941660208601529284019190915260608301521515608082015260a0015b60405180910390f35b34801561014857600080fd5b5061015260025481565b604051908152602001610133565b34801561016c57600080fd5b5061018061017b366004610f04565b6102f8565b005b34801561018e57600080fd5b50610180610381565b3480156101a357600080fd5b506101b76101b2366004610ed8565b610395565b604051610133919081516001600160a01b03908116825260208084015190911690820152604080830151908201526060808301519082015260809182015115159181019190915260a00190565b34801561021057600080fd5b5061018061021f366004610f1d565b61042c565b34801561023057600080fd5b506000546040516001600160a01b039091168152602001610133565b61018061025a366004610ed8565b610748565b34801561026b57600080fd5b5061018061027a366004610ed8565b610cdc565b34801561028b57600080fd5b506102c861029a366004610ed8565b6001600160a01b03919091166000908152600360209081526040808320938352929052206004015460ff1690565b6040519015158152602001610133565b3480156102e457600080fd5b506101806102f3366004610f52565b610dde565b610300610e1c565b6103e88111156103465760405162461bcd60e51b815260206004820152600c60248201526b08ccaca40e8dede40d0d2ced60a31b60448201526064015b60405180910390fd5b60028190556040518181527f5f9a1a56fa7c4650b78954ef2d2e478202d34e822e8bc839e82d715b819e37289060200160405180910390a150565b610389610e1c565b6103936000610e49565b565b6040805160a081018252600080825260208201819052918101829052606081018290526080810191909152506001600160a01b038083166000908152600360208181526040808420868552825292839020835160a08101855281548616815260018201549095169185019190915260028101549284019290925281015460608301526004015460ff16151560808201525b92915050565b6040516331a9108f60e11b815260048101839052839033906001600160a01b03831690636352211e90602401602060405180830381865afa158015610475573d6000803e3d6000fd5b505050506040513d601f19601f820116820180604052508101906104999190610f76565b6001600160a01b0316146104df5760405162461bcd60e51b815260206004820152600d60248201526c2737ba103a34329037bbb732b960991b604482015260640161033d565b60405163e985e9c560e01b81523360048201523060248201526001600160a01b0382169063e985e9c590604401602060405180830381865afa158015610529573d6000803e3d6000fd5b505050506040513d601f19601f8201168201806040525081019061054d9190610f93565b6105995760405162461bcd60e51b815260206004820152601860248201527f4d61726b6574706c616365206e6f7420617070726f7665640000000000000000604482015260640161033d565b600082116105e95760405162461bcd60e51b815260206004820152601f60248201527f5072696365206d7573742062652067726561746572207468616e207a65726f00604482015260640161033d565b6040518060a00160405280336001600160a01b03168152602001856001600160a01b031681526020018481526020018381526020016001151581525060036000866001600160a01b03166001600160a01b03168152602001908152602001600020600085815260200190815260200160002060008201518160000160006101000a8154816001600160a01b0302191690836001600160a01b0316021790555060208201518160010160006101000a8154816001600160a01b0302191690836001600160a01b03160217905550604082015181600201556060820151816003015560808201518160040160006101000a81548160ff021916908315150217905550905050836001600160a01b0316336001600160a01b03167fd547e933094f12a9159076970143ebe73234e64480317844b0dcb36117116de4858560405161073a929190918252602082015260400190565b60405180910390a350505050565b610750610e99565b6001600160a01b03821660009081526003602090815260408083208484529091529020600481015460ff166107b95760405162461bcd60e51b815260206004820152600f60248201526e4974656d206e6f742061637469766560881b604482015260640161033d565b80600301543410156108025760405162461bcd60e51b8152602060048201526012602482015271496e73756666696369656e742066756e647360701b604482015260640161033d565b60048101805460ff191690556002546003820154600091612710916108279190610fcb565b6108319190610fe2565b905060008183600301546108459190611004565b9050600080866001600160a01b031663b8997a976040518163ffffffff1660e01b8152600401602060405180830381865afa9250505080156108a4575060408051601f3d908101601f191682019092526108a191810190611017565b60015b156108d9576127108187600301546108bc9190610fcb565b6108c69190610fe2565b92508291506108d58285611004565b9350505b8454604051632142170760e11b81526001600160a01b03918216600482015233602482015260448101889052908816906342842e0e90606401600060405180830381600087803b15801561092c57600080fd5b505af1158015610940573d6000803e3d6000fd5b50508654604051600093506001600160a01b03909116915085908381818185875af1925050503d8060008114610992576040519150601f19603f3d011682016040523d82523d6000602084013e610997565b606091505b50509050806109e85760405162461bcd60e51b815260206004820152601e60248201527f4661696c656420746f2073656e642066756e647320746f2073656c6c65720000604482015260640161033d565b8115610b0d57876001600160a01b0316638da5cb5b6040518163ffffffff1660e01b8152600401602060405180830381865afa925050508015610a48575060408051601f3d908101601f19168201909252610a4591810190610f76565b60015b610a5d57610a568286611030565b9450610b0d565b6000816001600160a01b03168460405160006040518083038185875af1925050503d8060008114610aaa576040519150601f19603f3d011682016040523d82523d6000602084013e610aaf565b606091505b5050905080610b0a5760405162461bcd60e51b815260206004820152602160248201527f4661696c656420746f2073656e6420726f79616c747920746f2063726561746f6044820152603960f91b606482015260840161033d565b50505b8415610bc357600080546040516001600160a01b039091169087908381818185875af1925050503d8060008114610b60576040519150601f19603f3d011682016040523d82523d6000602084013e610b65565b606091505b5050905080610bc15760405162461bcd60e51b815260206004820152602260248201527f4661696c656420746f2073656e64206d61726b65742066656520746f206f776e60448201526132b960f11b606482015260840161033d565b505b8560030154341115610c775760038601546000903390610be39034611004565b604051600081818185875af1925050503d8060008114610c1f576040519150601f19603f3d011682016040523d82523d6000602084013e610c24565b606091505b5050905080610c755760405162461bcd60e51b815260206004820152601f60248201527f4661696c656420746f20726566756e6420657863657373207061796d656e7400604482015260640161033d565b505b85546003870154604080518a815260208101929092526001600160a01b038b81169333939116917fee0ddd6454e05c1b33a8dfcb6cc52418d28020e96e21228bb601f5dbb6790cd0910160405180910390a4505050505050610cd860018055565b5050565b6001600160a01b038083166000908152600360209081526040808320858452909152902080549091163314610d445760405162461bcd60e51b815260206004820152600e60248201526d2737ba103a34329039b2b63632b960911b604482015260640161033d565b600481015460ff16610d8d5760405162461bcd60e51b81526020600482015260126024820152714c697374696e67206e6f742061637469766560701b604482015260640161033d565b60048101805460ff191690556040518281526001600160a01b0384169033907f9ba1a3cb55ce8d63d072a886f94d2a744f50cddf82128e897d0661f5ec6231589060200160405180910390a3505050565b610de6610e1c565b6001600160a01b038116610e1057604051631e4fbdf760e01b81526000600482015260240161033d565b610e1981610e49565b50565b6000546001600160a01b031633146103935760405163118cdaa760e01b815233600482015260240161033d565b600080546001600160a01b038381166001600160a01b0319831681178455604051919092169283917f8be0079c531659141344cd1fd0a4f28419497f9722a3daafe3b4186f6b6457e09190a35050565b600260015403610ebc57604051633ee5aeb560e01b815260040160405180910390fd5b6002600155565b6001600160a01b0381168114610e1957600080fd5b60008060408385031215610eeb57600080fd5b8235610ef681610ec3565b946020939093013593505050565b600060208284031215610f1657600080fd5b5035919050565b600080600060608486031215610f3257600080fd5b8335610f3d81610ec3565b95602085013595506040909401359392505050565b600060208284031215610f6457600080fd5b8135610f6f81610ec3565b9392505050565b600060208284031215610f8857600080fd5b8151610f6f81610ec3565b600060208284031215610fa557600080fd5b81518015158114610f6f57600080fd5b634e487b7160e01b600052601160045260246000fd5b808202811582820484141761042657610426610fb5565b600082610fff57634e487b7160e01b600052601260045260246000fd5b500490565b8181038181111561042657610426610fb5565b60006020828403121561102957600080fd5b5051919050565b8082018082111561042657610426610fb556fea264697066735822122072e0602023f057267528c03216add711c02274611e884d7b9aca905b279574f264736f6c63430008140033",
  "linkReferences": {},
  "deployedLinkReferences": {}
}