{
  "_format": "hh-sol-artifact-1",
  "contractName": "PepeMarketplace",
  "sourceName": "contracts/PepeMarketplace.sol",
  "abi": [
    {
      "inputs": [
        {
          "internalType": "uint256",
          "name": "_marketFee",
          "type": "uint256"
        },
        {
          "internalType": "address",
          "name": "initialOwner",
          "type": "address"
        }
      ],
      "stateMutability": "nonpayable",
      "type": "constructor"
    },
    {
      "inputs": [
        {
          "internalType": "address",
          "name": "owner",
          "type": "address"
        }
      ],
      "name": "OwnableInvalidOwner",
      "type": "error"
    },
    {
      "inputs": [
        {
          "internalType": "address",
          "name": "account",
          "type": "address"
        }
      ],
      "name": "OwnableUnauthorizedAccount",
      "type": "error"
    },
    {
      "inputs": [],
      "name": "ReentrancyGuardReentrantCall",
      "type": "error"
    },
    {
      "anonymous": false,
      "inputs": [
        {
          "indexed": true,
          "internalType": "address",
          "name": "seller",
          "type": "address"
        },
        {
          "indexed": true,
          "internalType": "address",
          "name": "nftContract",
          "type": "address"
        },
        {
          "indexed": false,
          "internalType": "uint256",
          "name": "tokenId",
          "type": "uint256"
        }
      ],
      "name": "ItemCanceled",
      "type": "event"
    },
    {
      "anonymous": false,
      "inputs": [
        {
          "indexed": true,
          "internalType": "address",
          "name": "seller",
          "type": "address"
        },
        {
          "indexed": true,
          "internalType": "address",
          "name": "nftContract",
          "type": "address"
        },
        {
          "indexed": false,
          "internalType": "uint256",
          "name": "tokenId",
          "type": "uint256"
        },
        {
          "indexed": false,
          "internalType": "uint256",
          "name": "price",
          "type": "uint256"
        }
      ],
      "name": "ItemListed",
      "type": "event"
    },
    {
      "anonymous": false,
      "inputs": [
        {
          "indexed": true,
          "internalType": "address",
          "name": "seller",
          "type": "address"
        },
        {
          "indexed": true,
          "internalType": "address",
          "name": "buyer",
          "type": "address"
        },
        {
          "indexed": true,
          "internalType": "address",
          "name": "nftContract",
          "type": "address"
        },
        {
          "indexed": false,
          "internalType": "uint256",
          "name": "tokenId",
          "type": "uint256"
        },
        {
          "indexed": false,
          "internalType": "uint256",
          "name": "price",
          "type": "uint256"
        }
      ],
      "name": "ItemSold",
      "type": "event"
    },
    {
      "anonymous": false,
      "inputs": [
        {
          "indexed": false,
          "internalType": "uint256",
          "name": "newFee",
          "type": "uint256"
        }
      ],
      "name": "MarketFeeUpdated",
      "type": "event"
    },
    {
      "anonymous": false,
      "inputs": [
        {
          "indexed": true,
          "internalType": "address",
          "name": "previousOwner",
          "type": "address"
        },
        {
          "indexed": true,
          "internalType": "address",
          "name": "newOwner",
          "type": "address"
        }
      ],
      "name": "OwnershipTransferred",
      "type": "event"
    },
    {
      "inputs": [
        {
          "internalType": "address",
          "name": "nftContract",
          "type": "address"
        },
        {
          "internalType": "uint256",
          "name": "tokenId",
          "type": "uint256"
        }
      ],
      "name": "buyItem",
      "outputs": [],
      "stateMutability": "payable",
      "type": "function"
    },
    {
      "inputs": [
        {
          "internalType": "address",
          "name": "nftContract",
          "type": "address"
        },
        {
          "internalType": "uint256",
          "name": "tokenId",
          "type": "uint256"
        }
      ],
      "name": "cancelListing",
      "outputs": [],
      "stateMutability": "nonpayable",
      "type": "function"
    },
    {
      "inputs": [
        {
          "internalType": "address",
          "name": "nftContract",
          "type": "address"
        },
        {
          "internalType": "uint256",
          "name": "tokenId",
          "type": "uint256"
        }
      ],
      "name": "getListing",
      "outputs": [
        {
          "components": [
            {
              "internalType": "address",
              "name": "seller",
              "type": "address"
            },
            {
              "internalType": "address",
              "name": "nftContract",
              "type": "address"
            },
            {
              "internalType": "uint256",
              "name": "tokenId",
              "type": "uint256"
            },
            {
              "internalType": "uint256",
              "name": "price",
              "type": "uint256"
            },
            {
              "internalType": "bool",
              "name": "active",
              "type": "bool"
            }
          ],
          "internalType": "struct PepeMarketplace.Listing",
          "name": "",
          "type": "tuple"
        }
      ],
      "stateMutability": "view",
      "type": "function"
    },
    {
      "inputs": [
        {
          "internalType": "address",
          "name": "nftContract",
          "type": "address"
        },
        {
          "internalType": "uint256",
          "name": "tokenId",
          "type": "uint256"
        }
      ],
      "name": "isListed",
      "outputs": [
        {
          "internalType": "bool",
          "name": "",
          "type": "bool"
        }
      ],
      "stateMutability": "view",
      "type": "function"
    },
    {
      "inputs": [
        {
          "internalType": "address",
          "name": "nftContract",
          "type": "address"
        },
        {
          "internalType": "uint256",
          "name": "tokenId",
          "type": "uint256"
        }
      ],
      "name": "isListingValid",
      "outputs": [
        {
          "internalType": "bool",
          "name": "",
          "type": "bool"
        }
      ],
      "stateMutability": "view",
      "type": "function"
    },
    {
      "inputs": [
        {
          "internalType": "address",
          "name": "nftContract",
          "type": "address"
        },
        {
          "internalType": "uint256",
          "name": "tokenId",
          "type": "uint256"
        },
        {
          "internalType": "uint256",
          "name": "price",
          "type": "uint256"
        }
      ],
      "name": "listItem",
      "outputs": [],
      "stateMutability": "nonpayable",
      "type": "function"
    },
    {
      "inputs": [
        {
          "internalType": "address",
          "name": "",
          "type": "address"
        },
        {
          "internalType": "uint256",
          "name": "",
          "type": "uint256"
        }
      ],
      "name": "listings",
      "outputs": [
        {
          "internalType": "address",
          "name": "seller",
          "type": "address"
        },
        {
          "internalType": "address",
          "name": "nftContract",
          "type": "address"
        },
        {
          "internalType": "uint256",
          "name": "tokenId",
          "type": "uint256"
        },
        {
          "internalType": "uint256",
          "name": "price",
          "type": "uint256"
        },
        {
          "internalType": "bool",
          "name": "active",
          "type": "bool"
        }
      ],
      "stateMutability": "view",
      "type": "function"
    },
    {
      "inputs": [],
      "name": "marketFee",
      "outputs": [
        {
          "internalType": "uint256",
          "name": "",
          "type": "uint256"
        }
      ],
      "stateMutability": "view",
      "type": "function"
    },
    {
      "inputs": [],
      "name": "owner",
      "outputs": [
        {
          "internalType": "address",
          "name": "",
          "type": "address"
        }
      ],
      "stateMutability": "view",
      "type": "function"
    },
    {
      "inputs": [],
      "name": "renounceOwnership",
      "outputs": [],
      "stateMutability": "nonpayable",
      "type": "function"
    },
    {
      "inputs": [
        {
          "internalType": "uint256",
          "name": "_marketFee",
          "type": "uint256"
        }
      ],
      "name": "setMarketFee",
      "outputs": [],
      "stateMutability": "nonpayable",
      "type": "function"
    },
    {
      "inputs": [
        {
          "internalType": "address",
          "name": "newOwner",
          "type": "address"
        }
      ],
      "name": "transferOwnership",
      "outputs": [],
      "stateMutability": "nonpayable",
      "type": "function"
    }
  ],
  "bytecode": "0x608060405234801561001057600080fd5b5060405161137838038061137883398101604081905261002f916100c5565b806001600160a01b03811661005e57604051631e4fbdf760e01b81526000600482015260240160405180910390fd5b61006781610075565b505060018055600255610102565b600080546001600160a01b038381166001600160a01b0319831681178455604051919092169283917f8be0079c531659141344cd1fd0a4f28419497f9722a3daafe3b4186f6b6457e09190a35050565b600080604083850312156100d857600080fd5b825160208401519092506001600160a01b03811681146100f757600080fd5b809150509250929050565b611267806101116000396000f3fe6080604052600436106100a65760003560e01c80638da5cb5b116100645780638da5cb5b1461022f5780639f37092a14610257578063b2ddee061461026a578063c6a5b6531461028a578063cdb3cd25146102ba578063f2fde38b1461030357600080fd5b806207df30146100ab5780630ccf21561461014757806326b825d21461016b578063715018a61461018d57806388700d1c146101a257806389bfd38f1461020f575b600080fd5b3480156100b757600080fd5b5061010d6100c63660046110c6565b60036020818152600093845260408085209091529183529120805460018201546002830154938301546004909301546001600160a01b039283169492909116929060ff1685565b604080516001600160a01b0396871681529590941660208601529284019190915260608301521515608082015260a0015b60405180910390f35b34801561015357600080fd5b5061015d60025481565b60405190815260200161013e565b34801561017757600080fd5b5061018b6101863660046110f2565b610323565b005b34801561019957600080fd5b5061018b6103ac565b3480156101ae57600080fd5b506101c26101bd3660046110c6565b6103c0565b60405161013e919081516001600160a01b03908116825260208084015190911690820152604080830151908201526060808301519082015260809182015115159181019190915260a00190565b34801561021b57600080fd5b5061018b61022a36600461110b565b610457565b34801561023b57600080fd5b506000546040516001600160a01b03909116815260200161013e565b61018b6102653660046110c6565b610773565b34801561027657600080fd5b5061018b6102853660046110c6565b610dd0565b34801561029657600080fd5b506102aa6102a53660046110c6565b610ed2565b604051901515815260200161013e565b3480156102c657600080fd5b506102aa6102d53660046110c6565b6001600160a01b03919091166000908152600360209081526040808320938352929052206004015460ff1690565b34801561030f57600080fd5b5061018b61031e366004611140565b610fcc565b61032b61100a565b6103e88111156103715760405162461bcd60e51b815260206004820152600c60248201526b08ccaca40e8dede40d0d2ced60a31b60448201526064015b60405180910390fd5b60028190556040518181527f5f9a1a56fa7c4650b78954ef2d2e478202d34e822e8bc839e82d715b819e37289060200160405180910390a150565b6103b461100a565b6103be6000611037565b565b6040805160a081018252600080825260208201819052918101829052606081018290526080810191909152506001600160a01b038083166000908152600360208181526040808420868552825292839020835160a08101855281548616815260018201549095169185019190915260028101549284019290925281015460608301526004015460ff16151560808201525b92915050565b6040516331a9108f60e11b815260048101839052839033906001600160a01b03831690636352211e90602401602060405180830381865afa1580156104a0573d6000803e3d6000fd5b505050506040513d601f19601f820116820180604052508101906104c49190611164565b6001600160a01b03161461050a5760405162461bcd60e51b815260206004820152600d60248201526c2737ba103a34329037bbb732b960991b6044820152606401610368565b60405163e985e9c560e01b81523360048201523060248201526001600160a01b0382169063e985e9c590604401602060405180830381865afa158015610554573d6000803e3d6000fd5b505050506040513d601f19601f820116820180604052508101906105789190611181565b6105c45760405162461bcd60e51b815260206004820152601860248201527f4d61726b6574706c616365206e6f7420617070726f76656400000000000000006044820152606401610368565b600082116106145760405162461bcd60e51b815260206004820152601f60248201527f5072696365206d7573742062652067726561746572207468616e207a65726f006044820152606401610368565b6040518060a00160405280336001600160a01b03168152602001856001600160a01b031681526020018481526020018381526020016001151581525060036000866001600160a01b03166001600160a01b03168152602001908152602001600020600085815260200190815260200160002060008201518160000160006101000a8154816001600160a01b0302191690836001600160a01b0316021790555060208201518160010160006101000a8154816001600160a01b0302191690836001600160a01b03160217905550604082015181600201556060820151816003015560808201518160040160006101000a81548160ff021916908315150217905550905050836001600160a01b0316336001600160a01b03167fd547e933094f12a9159076970143ebe73234e64480317844b0dcb36117116de48585604051610765929190918252602082015260400190565b60405180910390a350505050565b61077b611087565b6001600160a01b03821660009081526003602090815260408083208484529091529020600481015460ff166107e45760405162461bcd60e51b815260206004820152600f60248201526e4974656d206e6f742061637469766560881b6044820152606401610368565b806003015434101561082d5760405162461bcd60e51b8152602060048201526012602482015271496e73756666696369656e742066756e647360701b6044820152606401610368565b80546040516331a9108f60e11b81526004810184905284916001600160a01b039081169190831690636352211e90602401602060405180830381865afa15801561087b573d6000803e3d6000fd5b505050506040513d601f19601f8201168201806040525081019061089f9190611164565b6001600160a01b0316146108f55760405162461bcd60e51b815260206004820152601e60248201527f53656c6c6572206e6f206c6f6e676572206f776e732074686973204e465400006044820152606401610368565b60048201805460ff1916905560025460038301546000916127109161091a91906111b9565b61092491906111d0565b9050600081846003015461093891906111f2565b9050600080876001600160a01b031663b8997a976040518163ffffffff1660e01b8152600401602060405180830381865afa925050508015610997575060408051601f3d908101601f1916820190925261099491810190611205565b60015b156109cc576127108188600301546109af91906111b9565b6109b991906111d0565b92508291506109c882856111f2565b9350505b8554604051632142170760e11b81526001600160a01b03918216600482015233602482015260448101899052908916906342842e0e90606401600060405180830381600087803b158015610a1f57600080fd5b505af1158015610a33573d6000803e3d6000fd5b50508754604051600093506001600160a01b03909116915085908381818185875af1925050503d8060008114610a85576040519150601f19603f3d011682016040523d82523d6000602084013e610a8a565b606091505b5050905080610adb5760405162461bcd60e51b815260206004820152601e60248201527f4661696c656420746f2073656e642066756e647320746f2073656c6c657200006044820152606401610368565b8115610c0057886001600160a01b0316638da5cb5b6040518163ffffffff1660e01b8152600401602060405180830381865afa925050508015610b3b575060408051601f3d908101601f19168201909252610b3891810190611164565b60015b610b5057610b49828661121e565b9450610c00565b6000816001600160a01b03168460405160006040518083038185875af1925050503d8060008114610b9d576040519150601f19603f3d011682016040523d82523d6000602084013e610ba2565b606091505b5050905080610bfd5760405162461bcd60e51b815260206004820152602160248201527f4661696c656420746f2073656e6420726f79616c747920746f2063726561746f6044820152603960f91b6064820152608401610368565b50505b8415610cb657600080546040516001600160a01b039091169087908381818185875af1925050503d8060008114610c53576040519150601f19603f3d011682016040523d82523d6000602084013e610c58565b606091505b5050905080610cb45760405162461bcd60e51b815260206004820152602260248201527f4661696c656420746f2073656e64206d61726b65742066656520746f206f776e60448201526132b960f11b6064820152608401610368565b505b8660030154341115610d6a5760038701546000903390610cd690346111f2565b604051600081818185875af1925050503d8060008114610d12576040519150601f19603f3d011682016040523d82523d6000602084013e610d17565b606091505b5050905080610d685760405162461bcd60e51b815260206004820152601f60248201527f4661696c656420746f20726566756e6420657863657373207061796d656e74006044820152606401610368565b505b86546003880154604080518b815260208101929092526001600160a01b038c81169333939116917fee0ddd6454e05c1b33a8dfcb6cc52418d28020e96e21228bb601f5dbb6790cd0910160405180910390a450505050505050610dcc60018055565b5050565b6001600160a01b038083166000908152600360209081526040808320858452909152902080549091163314610e385760405162461bcd60e51b815260206004820152600e60248201526d2737ba103a34329039b2b63632b960911b6044820152606401610368565b600481015460ff16610e815760405162461bcd60e51b81526020600482015260126024820152714c697374696e67206e6f742061637469766560701b6044820152606401610368565b60048101805460ff191690556040518281526001600160a01b0384169033907f9ba1a3cb55ce8d63d072a886f94d2a744f50cddf82128e897d0661f5ec6231589060200160405180910390a3505050565b6001600160a01b0380831660009081526003602081815260408084208685528252808420815160a0810183528154871681526001820154909616928601929092526002820154908501529081015460608401526004015460ff16151560808301819052909190610f46576000915050610451565b6040516331a9108f60e11b8152600481018490526001600160a01b03851690636352211e90602401602060405180830381865afa925050508015610fa7575060408051601f3d908101601f19168201909252610fa491810190611164565b60015b610fb5576000915050610451565b90516001600160a01b039182169116149050610451565b610fd461100a565b6001600160a01b038116610ffe57604051631e4fbdf760e01b815260006004820152602401610368565b61100781611037565b50565b6000546001600160a01b031633146103be5760405163118cdaa760e01b8152336004820152602401610368565b600080546001600160a01b038381166001600160a01b0319831681178455604051919092169283917f8be0079c531659141344cd1fd0a4f28419497f9722a3daafe3b4186f6b6457e09190a35050565b6002600154036110aa57604051633ee5aeb560e01b815260040160405180910390fd5b6002600155565b6001600160a01b038116811461100757600080fd5b600080604083850312156110d957600080fd5b82356110e4816110b1565b946020939093013593505050565b60006020828403121561110457600080fd5b5035919050565b60008060006060848603121561112057600080fd5b833561112b816110b1565b95602085013595506040909401359392505050565b60006020828403121561115257600080fd5b813561115d816110b1565b9392505050565b60006020828403121561117657600080fd5b815161115d816110b1565b60006020828403121561119357600080fd5b8151801515811461115d57600080fd5b634e487b7160e01b600052601160045260246000fd5b8082028115828204841417610451576104516111a3565b6000826111ed57634e487b7160e01b600052601260045260246000fd5b500490565b81810381811115610451576104516111a3565b60006020828403121561121757600080fd5b5051919050565b80820180821115610451576104516111a356fea264697066735822122004b47898d98af4eebabed8160385cb63c1dc28bffd60055ebb171d692618c4dc64736f6c63430008140033",
  "linkReferences": {},
  "deployedLinkReferences": {}
}